:100000000C9463000C948B000C948B000C948B006C
:100010000C948B000C948B000C948B000C948B0034
:100020000C948B000C948B000C948B000C948B0024
:100030000C948B000C948B000C948B000C948B0014
:100040000C94FA030C948B000C94EE060C9420078D
:100050000C948B000C948B000C948B000C948B00F4
:100060000C948B000C948B0000000008000201002F
:100070000003040700000000000000000102040863
:100080001020408001020408102001020408102002
:10009000040404040404040402020202020203032E
:1000A00003030303000000002300260029000000D2
:1000B0000000250028002B0000000000240027007D
:1000C0002A008303500711241FBECFEFD8E0DEBF04
:1000D000CDBF11E0A0E0B1E0ECEEFFE002C0059082
:1000E0000D92AE31B107D9F722E0AEE1B1E001C027
:1000F0001D92A73BB207E1F710E0C6ECD0E004C0C8
:100100002297FE010E94F007C23CD107C9F70E9466
:10011000BC070C94F4070C9400008DEF91E00E9452
:10012000850385EF91E00E9485038DEE91E00E94AA
:10013000850385EE91E00E9485038DED91E00E949C
:10014000850385ED91E00E9485038AE192E090931A
:10015000D4018093D30110921F0110921E011092BE
:10016000210110922001109223011092220110927D
:10017000250110922401109227011092260110925D
:1001800029011092280110922B0110922A0110923D
:100190002D0110922C0110922F0110922E0110921D
:1001A00031011092300110923301109232011092FD
:1001B00035011092340110923701109236011092DD
:1001C00039011092380110923B0110923A011092BD
:1001D0003D0110923C0110923F0110923E0110929D
:1001E0004101109240010895CF93DF9326E042E150
:1001F0005AE760E070E08091D3019091D4010E94B1
:100200008C0681E1809345011092440110924301D4
:1002100010924C0110924B0110924A011092490128
:100220001092D20110924F0110924E0110924D0186
:1002300010925001109251018091420181708260B0
:1002400081608093420160E082E00E94110560E0DD
:1002500083E00E94110560E084E00E94110560E0E7
:1002600085E00E94110560E086E00E94110560E0D3
:1002700087E00E94110561E089E00E94110561E0BC
:100280008EE00E94110561E08FE00E94110561E09F
:1002900080E10E94110561E081E10E94110561E0A9
:1002A0008DE00E94110561E082E00E944A0561E054
:1002B00083E00E944A0561E084E00E944A0561E013
:1002C00085E00E944A0561E086E00E944A0561E0FF
:1002D00087E00E944A0562E070E08DEF91E00E94A5
:1002E00091036AE070E08DEF91E00E94A60363E065
:1002F00070E085EF91E00E9491036AE070E085EF85
:1003000091E00E94A60364E070E08DEE91E00E940F
:1003100091036AE070E08DEE91E00E94A60365E033
:1003200070E085EE91E00E9491036AE070E085EE56
:1003300091E00E94A60366E070E08DED91E00E94DE
:1003400091036AE070E08DED91E00E94A60367E002
:1003500070E085ED91E00E9491036AE070E085ED28
:1003600091E00E94A603C3E0D0E061E089E00E9432
:100370004A0561E08DE00E944A056AE070E080E095
:1003800090E00E94730460E08FE00E944A0560E004
:1003900080E10E944A0564E670E080E090E00E94FF
:1003A000730461E08EE00E944A0561E081E10E94F1
:1003B0004A056AE070E080E090E00E94730460E02B
:1003C00089E00E944A0560E08DE00E944A0564E6EB
:1003D00070E080E090E00E94730461E08FE00E9492
:1003E0004A0561E080E10E944A056AE070E080E031
:1003F00090E00E94730460E08EE00E944A0560E095
:1004000081E10E944A0564E670E080E090E00E948D
:100410007304219709F0A9CFDF91CF910895CF926E
:10042000DF92EF92FF920F931F93CF93DF937C01A4
:10043000EB01D22E0150003118F46038710524F41C
:10044000D70196961C9264C0613E7105C4F54F7742
:10045000C42E602BFC0186A187010B541F4F861709
:1004600059F066A3D8018D919C91DC01ED91FC912E
:100470000190F081E02D0995F80180819181DC01E6
:10048000ED91FC910190F081E02D6C2D0995CF7ECE
:10049000C03CD105E9F1F80180819181DC01ED9149
:1004A000FC916D2D6F770190F081E02DDF91CF9160
:1004B0001F910F91FF90EF90DF90CF900994CB01A7
:1004C000865F91090A9720F56D3F710554F46A3FE4
:1004D000710564F4663F710549F0683F710599F450
:1004E00005C0CB018E5F9109029768F4F701EB54C8
:1004F000FF4F80819181DC01ED91FC910190F081B1
:10050000E02D6C2F0995C63FD10511F4F70116A215
:10051000DF91CF911F910F91FF90EF90DF90CF90DF
:1005200008950F93CF93C82F09E02FE7482F60E974
:1005300070E08EE191E00E940F026AE070E080E0DE
:1005400090E00E94730420E04C2F60E870E08EE1A0
:1005500091E00E940F02CF910F9108950F931F9386
:10056000CF93DF9305E012E0C2E0D1E088812296CC
:10057000F80160810E944A05F801119211928F01E1
:10058000F1E0CE30DF0791F762E370E080E090E0C9
:100590000E94730402E011E0C5E0D2E06881229677
:1005A000F80180810E5F1F4F0E944A05F2E0C131C1
:1005B000DF07A1F78DEF91E00E94AA038823A1F045
:1005C0008DEF91E00E94F60381110EC08DE390E063
:1005D0000E949102109201011092000181E090E0CE
:1005E000909306028093050285EF91E00E94AA0392
:1005F0008823A1F085EF91E00E94F60381110EC0DF
:1006000080E490E00E94910281E090E090930101EB
:100610008093000190930802809307028DEE91E091
:100620000E94AA038823B1F08DEE91E00E94F603A8
:10063000811110C085E490E00E94910282E090E078
:10064000909301018093000181E090E090930A0271
:100650008093090285EE91E00E94AA038823B1F0FD
:1006600085EE91E00E94F603811110C082E290E0D5
:100670000E94910283E090E0909301018093000139
:1006800081E090E090930C0280930B028DED91E05D
:100690000E94AA038823B1F08DED91E00E94F60339
:1006A000811110C087E490E00E94910284E090E004
:1006B000909301018093000181E090E090930E02FD
:1006C00080930D0285ED91E00E94AA038823B1F08A
:1006D00085ED91E00E94F603811110C084E490E062
:1006E0000E94910285E090E09093010180930001C7
:1006F00081E090E09093100280930F02DF91CF9100
:100700001F910F9108950C948D00FC0110821182AD
:10071000128213828AE090E0958384831682178286
:100720000895CF93DF93EC01862F6F831E820E9482
:100730008005892B11F083E08E830E944404688336
:1007400079838A839B83DF91CF910895FC01758320
:1007500064830895FF920F931F93CF93DF93EC016F
:100760008F810E948005FF24F394892B09F4F12CDA
:100770008E81982F977F9E8386958170F81651F011
:100780000E944404688379838A839B838E8192E0EC
:10079000892721C00E944404088119812A813B8154
:1007A000601B710B820B930B0C811D8120E030E0EC
:1007B000601771078207930778F08E8181708F151B
:1007C00059F00E944404688379838A839B838E81D5
:1007D00091E0892788608E838E8183FB882780F94A
:1007E000DF91CF911F910F91FF900895FC018681B9
:1007F000817008951F920F920FB60F9211242F93BC
:100800003F938F939F93AF93BF93809112029091E8
:100810001302A0911402B09115023091110223E04D
:10082000230F2D3720F40196A11DB11D05C026E828
:10083000230F0296A11DB11D209311028093120275
:1008400090931302A0931402B093150280911602A4
:1008500090911702A0911802B09119020196A11D62
:10086000B11D8093160290931702A0931802B093C3
:100870001902BF91AF919F918F913F912F910F904E
:100880000FBE0F901F9018952FB7F8946091120229
:100890007091130280911402909115022FBF089558
:1008A0003FB7F8948091160290911702A091180218
:1008B000B091190226B5A89B05C02F3F19F00196EB
:1008C000A11DB11D3FBF6627782F892F9A2F620F78
:1008D000711D811D911D42E0660F771F881F991FB2
:1008E0004A95D1F708958F929F92AF92BF92CF927F
:1008F000DF92EF92FF926B017C010E9450044B014A
:100900005C01C114D104E104F104F1F00E94CB07B1
:100910000E945004681979098A099B09683E73404E
:100920008105910570F321E0C21AD108E108F108B0
:1009300088EE880E83E0981EA11CB11CC114D1045E
:10094000E104F10429F7DDCFFF90EF90DF90CF9025
:10095000BF90AF909F908F900895789484B58260F7
:1009600084BD84B5816084BD85B5826085BD85B553
:10097000816085BDEEE6F0E0808181608083E1E802
:10098000F0E010828081826080838081816080833A
:10099000E0E8F0E0808181608083E1EBF0E080813D
:1009A00084608083E0EBF0E0808181608083EAE70F
:1009B000F0E0808184608083808182608083808198
:1009C000816080838081806880831092C100089557
:1009D000833081F028F4813099F08230A1F00895BD
:1009E0008730A9F08830B9F08430D1F4809180004C
:1009F0008F7D03C0809180008F7780938000089561
:100A000084B58F7702C084B58F7D84BD08958091B1
:100A1000B0008F7703C08091B0008F7D8093B000CD
:100A20000895CF93DF9390E0FC01E458FF4F2491A9
:100A3000FC01E057FF4F8491882349F190E0880F33
:100A4000991FFC01E854FF4FA591B49182559F4F27
:100A5000FC01C591D4919FB7611108C0F8948C91A5
:100A6000209582238C93888182230AC0623051F4BE
:100A7000F8948C91322F309583238C938881822B2C
:100A8000888304C0F8948C91822B8C939FBFDF9154
:100A9000CF9108950F931F93CF93DF931F92CDB7FC
:100AA000DEB7282F30E0F901E859FF4F8491F901B2
:100AB000E458FF4F1491F901E057FF4F04910023D0
:100AC000C9F0882321F069830E94E8046981E02F3E
:100AD000F0E0EE0FFF1FE255FF4FA591B4919FB7D5
:100AE000F8948C91611103C01095812301C0812B72
:100AF0008C939FBF0F90DF91CF911F910F9108951D
:100B0000CF93DF93282F30E0F901E859FF4F84910C
:100B1000F901E458FF4FD491F901E057FF4FC49118
:100B2000CC2391F081110E94E804EC2FF0E0EE0F4D
:100B3000FF1FEC55FF4FA591B4912C912D2381E01F
:100B400090E021F480E002C080E090E0DF91CF915E
:100B50000895FC01818D228D90E0805C9F4F821B67
:100B600091098F7399270895FC01918D828D9817B3
:100B700031F0828DE80FF11D858D90E008958FEFA3
:100B80009FEF0895FC01918D828D981761F0828D01
:100B9000DF01A80FB11D5D968C91928D9F5F9F73B1
:100BA000928F90E008958FEF9FEF089586E497E08D
:100BB000892B49F080E090E0892B29F00E944607BC
:100BC00081110C9400000895FC01848DDF01A80FB1
:100BD000B11DA35ABF4F2C91848D90E001968F7365
:100BE0009927848FA689B7892C93A089B1898C9184
:100BF00080648C93938D848D981306C00288F3894A
:100C0000E02D80818F7D80830895CF93DF93EC0169
:100C1000888D8823C9F0EA89FB89808185FD05C01C
:100C2000A889B9898C9186FD0FC00FB607FCF5CF56
:100C3000808185FFF2CFA889B9898C9185FFEDCF9E
:100C4000CE010E94E405E7CFDF91CF910895CF92C6
:100C5000DF92FF920F931F93CF93DF931F92CDB735
:100C6000DEB76C0181E0D60158968C9358975B965D
:100C70009C915B975C968C915C97981307C05096FB
:100C8000ED91FC915197808185FD2EC0F601038D79
:100C900010E00F5F1F4F0F731127F02EF601848DA8
:100CA000F81211C00FB607FCF9CFD6015096ED919E
:100CB000FC915197808185FFF1CFC60169830E9425
:100CC000E4056981EBCF838DE80FF11DE35AFF4FF7
:100CD0006083D6015B960C935B975296ED91FC91E5
:100CE0005397808180620CC0D6015696ED91FC919D
:100CF000579760835096ED91FC9151978081806465
:100D0000808381E090E00F90DF91CF911F910F9150
:100D1000FF90DF90CF900895BF92CF92DF92EF9235
:100D2000FF92CF93DF93EC016A017B01B22EE88939
:100D3000F98982E08083411581EE580761057105CC
:100D4000A1F060E079E08DE390E0A70196010E94B8
:100D5000CC072150310941095109569547953795DE
:100D60002795211580E1380798F0E889F9891082E4
:100D700060E874E88EE190E0A70196010E94CC073C
:100D800021503109410951095695479537952795C5
:100D9000EC85FD853083EE85FF852083188EEC89F8
:100DA000FD89B082EA89FB89808180618083EA893C
:100DB000FB89808188608083EA89FB8980818068E3
:100DC0008083EA89FB8980818F7D8083DF91CF9149
:100DD000FF90EF90DF90CF90BF9008951F920F92F9
:100DE0000FB60F9211242F938F939F93EF93FF933E
:100DF000E0912A02F0912B028081E0913002F09183
:100E0000310282FD12C09081809133028F5F8F7317
:100E100020913402821751F0E0913302F0E0E65E57
:100E2000FD4F958F8093330201C08081FF91EF9138
:100E30009F918F912F910F900FBE0F901F9018953B
:100E40001F920F920FB60F9211242F933F934F933F
:100E50005F936F937F938F939F93AF93BF93EF9322
:100E6000FF938AE192E00E94E405FF91EF91BF9128
:100E7000AF919F918F917F916F915F914F913F9132
:100E80002F910F900FBE0F901F9018958AE192E05E
:100E90000E94A90521E0892B09F420E0822F089502
:100EA00010921D0210921C0288EE93E0A0E0B0E0C8
:100EB00080931E0290931F02A0932002B093210200
:100EC00082E191E090931B0280931A0285EC90E0FE
:100ED000909327028093260284EC90E0909329025D
:100EE0008093280280EC90E090932B0280932A025A
:100EF00081EC90E090932D0280932C0282EC90E0A4
:100F000090932F0280932E0286EC90E09093310212
:100F10008093300210923302109234021092350204
:100F2000109236020895CF92DF92EF92FF920F93C4
:100F30001F93CF93DF937C016A01EB0100E010E087
:100F40000C151D0571F06991D701ED91FC9101908F
:100F5000F081E02DC7010995892B19F00F5F1F4F14
:100F6000EFCFC801DF91CF911F910F91FF90EF90CC
:100F7000DF90CF90089508950E94AD040E94BB07B2
:100F80000E94F400C6EDD5E00E94AE022097E1F386
:100F90000E94D605F9CF0895A1E21A2EAA1BBB1B09
:100FA000FD010DC0AA1FBB1FEE1FFF1FA217B30735
:100FB000E407F50720F0A21BB30BE40BF50B661F4B
:100FC000771F881F991F1A9469F76095709580950F
:100FD00090959B01AC01BD01CF010895EE0FFF1F5D
:0C0FE0000590F491E02D0994F894FFCFE7
:100FEC00FFFF09000E000F00100011000D000000A3
:0E0FFC00000027069307A905C205B4050506E7
:00000001FF
