:100000000C9463000C948B000C948B000C948B006C
:100010000C948B000C948B000C948B000C948B0034
:100020000C948B000C948B000C948B000C948B0024
:100030000C948B000C948B000C948B000C948B0014
:100040000C9411040C948B000C9405070C94370746
:100050000C948B000C948B000C948B000C948B00F4
:100060000C948B000C948B0000000008000201002F
:100070000003040700000000000000000102040863
:100080001020408001020408102001020408102002
:10009000040404040404040402020202020203032E
:1000A00003030303000000002300260029000000D2
:1000B0000000250028002B0000000000240027007D
:1000C0002A007D03670711241FBECFEFD8E0DEBFF3
:1000D000CDBF11E0A0E0B1E0EAE1F0E102C005909F
:1000E0000D92AE31B107D9F722E0AEE1B1E001C027
:1000F0001D92A13EB207E1F710E0C6ECD0E004C0CB
:100100002297FE010E940708C23CD107C9F70E944E
:10011000D3070C940B080C94000029E130E040E078
:1001200050E062E080E292E00E947F0329E130E04B
:1001300040E050E063E081E192E00E947F0329E12A
:1001400030E040E050E064E082E092E00E947F0313
:1001500029E130E040E050E065E083EF91E00E946B
:100160007F0329E130E040E050E066E084EE91E07A
:100170000E947F0329E130E040E050E067E085ED38
:1001800091E00E947F0384E492E09093D4018093F5
:10019000D30110921F0110921E01109221011092A2
:1001A0002001109223011092220110922501109239
:1001B0002401109227011092260110922901109219
:1001C000280110922B0110922A0110922D011092F9
:1001D0002C0110922F0110922E01109231011092D9
:1001E00030011092330110923201109235011092B9
:1001F0003401109237011092360110923901109299
:10020000380110923B0110923A0110923D01109278
:100210003C0110923F0110923E0110924101109258
:1002200040010895CF93DF9326E042E15AE760E072
:1002300070E08091D3019091D4010E94A30681E1E6
:1002400080934501109244011092430110924C0199
:1002500010924B0110924A01109249011092D20162
:1002600010924F0110924E0110924D0110925001C8
:10027000109251018091420181708260816080936F
:10028000420160E082E00E94280560E083E00E9475
:10029000280560E084E00E94280560E085E00E9477
:1002A000280560E086E00E94280560E087E00E9463
:1002B000280561E089E00E94280561E08EE00E9447
:1002C000280561E08FE00E94280561E080E10E943E
:1002D000280561E081E10E94280561E08DE00E942F
:1002E000280561E082E00E94610561E083E00E94F0
:1002F000610561E084E00E94610561E085E00E94A3
:10030000610561E086E00E94610561E087E00E948E
:100310006105C3E0D0E061E089E00E9461056AE028
:1003200070E080E090E00E948A0460E080E10E943A
:10033000610564E670E080E090E00E948A0461E07C
:100340008EE00E9461056AE070E080E090E00E942B
:100350008A0460E089E00E94610564E670E080E064
:1003600090E00E948A0461E08FE00E9461056AE0EB
:1003700070E080E090E00E948A0460E08EE00E94DD
:10038000610564E670E080E090E00E948A0461E02C
:100390008DE00E9461056AE070E080E090E00E94DC
:1003A0008A0460E08FE00E94610564E670E080E00E
:1003B00090E00E948A0461E081E10E9461056AE0A8
:1003C00070E080E090E00E948A0460E08DE00E948E
:1003D000610564E670E080E090E00E948A0461E0DC
:1003E00080E10E9461056AE070E080E090E00E9498
:1003F0008A0460E081E10E94610564E670E080E0CB
:1004000090E00E948A04219709F085CFDF91CF9177
:100410000895CF92DF92EF92FF920F931F93CF93A5
:10042000DF937C01EB01D22E0150003118F46038CB
:10043000710524F4D70196961C9264C0613E710543
:10044000C4F54F77C42E602BFC0186A187010B54A5
:100450001F4F861759F066A3D8018D919C91DC013E
:10046000ED91FC910190F081E02D0995F8018081DA
:100470009181DC01ED91FC910190F081E02D6C2DDA
:100480000995CF7EC03CD105E9F1F80180819181C9
:10049000DC01ED91FC916D2D6F770190F081E02DE5
:1004A000DF91CF911F910F91FF90EF90DF90CF9050
:1004B0000994CB01865F91090A9720F56D3F71057C
:1004C00054F46A3F710564F4663F710549F0683F72
:1004D000710599F405C0CB018E5F9109029768F40C
:1004E000F701EB54FF4F80819181DC01ED91FC918C
:1004F0000190F081E02D6C2F0995C63FD10511F4D4
:10050000F70116A2DF91CF911F910F91FF90EF900D
:10051000DF90CF9008950F93CF93C82F09E02FE776
:10052000482F60E970E08EE191E00E94090265E0E9
:1005300070E080E090E00E948A0420E04C2F60E8A8
:1005400070E08EE191E00E940902CF910F91089531
:100550000F931F93CF93DF930FE212E0C2E0D1E03D
:1005600088812296F80160810E946105F80111924C
:1005700011928F01F1E0CE30DF0791F764E670E071
:1005800080E090E00E948A0402E011E0CFE2D2E035
:1005900068812296F80180810E5F1F4F0E946105DD
:1005A000F2E0CB33DF07A1F780E292E00E94D103B3
:1005B000892BA1F080E292E00E949B03892B71F4C9
:1005C0008DE390E00E948B021092010110920001D5
:1005D00081E090E09093300280932F0281E192E0DD
:1005E0000E94D103892BA1F081E192E00E949B033C
:1005F000892B71F480E490E00E948B0281E090E00E
:100600009093010180930001909332028093310214
:1006100082E092E00E94D103892BB1F082E092E067
:100620000E949B03892B81F485E490E00E948B0259
:1006300082E090E0909301018093000181E090E0DE
:10064000909334028093330283EF91E00E94D103B0
:10065000892BB1F083EF91E00E949B03892B81F4F9
:1006600082E290E00E948B0283E090E0909301018F
:100670008093000181E090E09093360280933502F0
:1006800084EE91E00E94D103892BB1F084EE91E0D9
:100690000E949B03892B81F487E490E00E948B02E7
:1006A00084E090E0909301018093000181E090E06C
:1006B000909338028093370285ED91E00E94D10338
:1006C000892BB1F085ED91E00E949B03892B81F489
:1006D00084E490E00E948B0285E090E09093010119
:1006E0008093000181E090E090933A028093390278
:1006F000DF91CF911F910F9108950C948D001F935E
:10070000CF93DF93EC01162F2C833D834E835F83C1
:10071000188619861A861B860E945B046883798373
:100720008A839B83812F0E9497058C871D87DF9189
:10073000CF911F910895FC01848590E00895FF9268
:100740000F931F93CF93DF93EC018D850E94970544
:10075000F82E8C858F1103C080E090E01CC00E94B1
:100760005B04088119812A813B81601B710B820B1C
:10077000930B0C811D812E813F81601771078207C9
:10078000930750F30E945B04688379838A839B8379
:10079000FC8681E090E0DF91CF911F910F91FF9057
:1007A0000895EF92FF920F931F93CF93DF93EC0185
:1007B0000E949F037C01009709F588859985AA8589
:1007C000BB85892B8A2B8B2B19F10E945B04088136
:1007D00019812A813B81601B710B820B930B088569
:1007E00019852A853B85601771078207930780F07A
:1007F0000E945B04688379838A839B8318861986A9
:100800001A861B8681E08E87EE24E394F12C01C0CA
:100810001E86C701DF91CF911F910F91FF90EF903E
:1008200008951F920F920FB60F9211242F933F93AA
:100830008F939F93AF93BF9380913C0290913D0221
:10084000A0913E02B0913F0230913B0223E0230F82
:100850002D3720F40196A11DB11D05C026E8230FF8
:100860000296A11DB11D20933B0280933C02909300
:100870003D02A0933E02B0933F02809140029091CE
:100880004102A0914202B09143020196A11DB11D07
:100890008093400290934102A0934202B09343029E
:1008A000BF91AF919F918F913F912F910F900FBE6C
:1008B0000F901F9018952FB7F89460913C0270919B
:1008C0003D0280913E0290913F022FBF08953FB7B5
:1008D000F8948091400290914102A0914202B0911F
:1008E000430226B5A89B05C02F3F19F00196A11D14
:1008F000B11D3FBF6627782F892F9A2F620F711D78
:10090000811D911D42E0660F771F881F991F4A9530
:10091000D1F708958F929F92AF92BF92CF92DF92BC
:10092000EF92FF926B017C010E9467044B015C0116
:10093000C114D104E104F104F1F00E94E2070E9425
:100940006704681979098A099B09683E7340810523
:10095000910570F321E0C21AD108E108F10888EE90
:10096000880E83E0981EA11CB11CC114D104E104BF
:10097000F10429F7DDCFFF90EF90DF90CF90BF908B
:10098000AF909F908F900895789484B5826084BDD5
:1009900084B5816084BD85B5826085BD85B5816083
:1009A00085BDEEE6F0E0808181608083E1E8F0E0E3
:1009B0001082808182608083808181608083E0E812
:1009C000F0E0808181608083E1EBF0E080818460F1
:1009D0008083E0EBF0E0808181608083EAE7F0E0F3
:1009E0008081846080838081826080838081816057
:1009F00080838081806880831092C1000895833055
:100A000081F028F4813099F08230A1F00895873088
:100A1000A9F08830B9F08430D1F4809180008F7DC6
:100A200003C0809180008F7780938000089584B503
:100A30008F7702C084B58F7D84BD08958091B0000A
:100A40008F7703C08091B0008F7D8093B0000895B0
:100A5000CF93DF9390E0FC01E458FF4F2491FC0119
:100A6000E057FF4F8491882349F190E0880F991F48
:100A7000FC01E854FF4FA591B49182559F4FFC01B2
:100A8000C591D4919FB7611108C0F8948C912095BD
:100A900082238C93888182230AC0623051F4F894B7
:100AA0008C91322F309583238C938881822B88837D
:100AB00004C0F8948C91822B8C939FBFDF91CF91CF
:100AC00008950F931F93CF93DF931F92CDB7DEB797
:100AD000282F30E0F901E859FF4F8491F901E458DB
:100AE000FF4F1491F901E057FF4F04910023C9F023
:100AF000882321F069830E94FF046981E02FF0E0E0
:100B0000EE0FFF1FE255FF4FA591B4919FB7F894E8
:100B10008C91611103C01095812301C0812B8C93AE
:100B20009FBF0F90DF91CF911F910F910895CF93A9
:100B3000DF93282F30E0F901E859FF4F8491F90144
:100B4000E458FF4FD491F901E057FF4FC491CC23F3
:100B500091F081110E94FF04EC2FF0E0EE0FFF1FD7
:100B6000EC55FF4FA591B4912C912D2381E090E09D
:100B700021F480E002C080E090E0DF91CF91089501
:100B8000FC01818D228D90E0805C9F4F821B91093A
:100B90008F7399270895FC01918D828D981731F0FC
:100BA000828DE80FF11D858D90E008958FEF9FEF06
:100BB0000895FC01918D828D981761F0828DDF017F
:100BC000A80FB11D5D968C91928D9F5F9F73928F40
:100BD00090E008958FEF9FEF08958DE597E0892BC2
:100BE00049F080E090E0892B29F00E945D07811197
:100BF0000C9400000895FC01848DDF01A80FB11D45
:100C0000A35ABF4F2C91848D90E001968F73992742
:100C1000848FA689B7892C93A089B1898C9180642F
:100C20008C93938D848D981306C00288F389E02DF0
:100C300080818F7D80830895CF93DF93EC01888D31
:100C40008823C9F0EA89FB89808185FD05C0A889D0
:100C5000B9898C9186FD0FC00FB607FCF5CF808156
:100C600085FFF2CFA889B9898C9185FFEDCFCE01A0
:100C70000E94FB05E7CFDF91CF910895CF92DF92DD
:100C8000FF920F931F93CF93DF931F92CDB7DEB7E1
:100C90006C0181E0D60158968C9358975B969C9195
:100CA0005B975C968C915C97981307C05096ED917A
:100CB000FC915197808185FD2EC0F601038D10E0D7
:100CC0000F5F1F4F0F731127F02EF601848DF8125E
:100CD00011C00FB607FCF9CFD6015096ED91FC91EB
:100CE0005197808185FFF1CFC60169830E94FB0582
:100CF0006981EBCF838DE80FF11DE35AFF4F6083CD
:100D0000D6015B960C935B975296ED91FC915397AD
:100D1000808180620CC0D6015696ED91FC91579768
:100D200060835096ED91FC9151978081806480831F
:100D300081E090E00F90DF91CF911F910F91FF9094
:100D4000DF90CF900895BF92CF92DF92EF92FF9203
:100D5000CF93DF93EC016A017B01B22EE889F98918
:100D600082E08083411581EE580761057105A1F08D
:100D700060E079E08DE390E0A70196010E94E3072F
:100D800021503109410951095695479537952795C5
:100D9000211580E1380798F0E889F989108260E828
:100DA00074E88EE190E0A70196010E94E3072150CC
:100DB0003109410951095695479537952795EC8595
:100DC000FD853083EE85FF852083188EEC89FD89B3
:100DD000B082EA89FB89808180618083EA89FB890E
:100DE000808188608083EA89FB8980818068808334
:100DF000EA89FB8980818F7D8083DF91CF91FF908D
:100E0000EF90DF90CF90BF9008951F920F920FB692
:100E10000F9211242F938F939F93EF93FF93E09161
:100E20005402F09155028081E0915A02F0915B02E8
:100E300082FD12C0908180915D028F5F8F7320913F
:100E40005E02821751F0E0915D02F0E0EC5BFD4F35
:100E5000958F80935D0201C08081FF91EF919F91FA
:100E60008F912F910F900FBE0F901F9018951F928A
:100E70000F920FB60F9211242F933F934F935F93CE
:100E80006F937F938F939F93AF93BF93EF93FF9352
:100E900084E492E00E94FB05FF91EF91BF91AF9136
:100EA0009F918F917F916F915F914F913F912F9182
:100EB0000F900FBE0F901F90189584E492E00E944F
:100EC000C00521E0892B09F420E0822F08951092BB
:100ED00047021092460288EE93E0A0E0B0E08093D3
:100EE000480290934902A0934A02B0934B0282E1D8
:100EF00091E0909345028093440285EC90E09093BA
:100F000051028093500284EC90E0909353028093BE
:100F1000520280EC90E0909355028093540281EC51
:100F200090E0909357028093560282EC90E0909369
:100F300059028093580286EC90E090935B02809374
:100F40005A0210925D0210925E0210925F0210929D
:100F500060020895CF92DF92EF92FF920F931F935A
:100F6000CF93DF937C016A01EB0100E010E00C15E8
:100F70001D0571F06991D701ED91FC910190F0810F
:100F8000E02DC7010995892B19F00F5F1F4FEFCF97
:100F9000C801DF91CF911F910F91FF90EF90DF90EB
:100FA000CF90089508950E94C4040E94D2070E9421
:100FB0001201CDEED5E00E94A8022097E1F30E9435
:100FC000ED05F9CF0895A1E21A2EAA1BBB1BFD0166
:100FD0000DC0AA1FBB1FEE1FFF1FA217B307E40718
:100FE000F50720F0A21BB30BE40BF50B661F771F70
:100FF000881F991F1A9469F7609570958095909550
:101000009B01AC01BD01CF010895EE0FFF1F0590BC
:0A101000F491E02D0994F894FFCF4D
:10101A00FFFF09000E000F00100011000D00000074
:0E102A0000003E06AA07C005D905CB051C062E
:00000001FF
